S02B0000534C53544B33343031415F45464D3332504731425F6164635F73696E676C655F696E74657272757054
S1130000008000207D010000A9010000A90100007A
S1130010A9010000A9010000A9010000A901000034
S1130020A9010000A9010000A9010000A901000024
S1130030A9010000A9010000A9010000A901000014
S1130040A9010000A9010000A9010000A901000004
S1130050A9010000A9010000A9010000A9010000F4
S1130060A9010000A9010000A9010000A9010000E4
S1130070A9010000A90100007D0F0000A9010000F2
S1130080A9010000A9010000A9010000A9010000C4
S1130090A9010000A9010000A9010000A9010000B4
S11300A0A9010000A9010000A9010000A9010000A4
S11300B0A9010000A9010000A9010000A901000094
S11300C0A9010000A901000010B5054C237833B93B
S11300D0044B13B10448AFF300800123237010BD17
S11300E07C000020000000009C11000008B5034BB8
S11300F01BB103490348AFF3008008BD00000000B2
S1130100800000209C110000154B002B08BF134BEE
S11301109D46A3F5803A00218B460F461348144AA6
S1130120121A01F015F80F4B002B00D098470E4B14
S1130130002B00D098470020002104000D000D483A
S1130140002802D00C48AFF3008000F0DDFF20004F
S1130150290000F02DFF00F0C3FF00BF00000800DD
S11301600080002000000000000000007C0000204F
S1130170A84000200000000000000000064880475E
S11301800649074A074B9A42BEBF51F8040B42F88E
S1130190040BF8E7FFF7B8FF2D020000A8110000D8
S11301A0000000207C000020FEE700BF0F4BD3F8C6
S11301B0943003F00703032B14D0042B0FD0022B2D
S11301C00AD00B4B1868094BD3F80031C3F304234E
S11301D00133B0FBF3F07047064B1868F3E7064BA6
S11301E01868F0E74FF40040EDE700BF00400E4010
S11301F008000020040000200C00002008B5FFF7D0
S1130200D5FF054B054AD3F80831C3F3082301335E
S1130210B0FBF3F0106008BD00400E400000002069
S1130220014B1868704700BF04000020034AD2F84D
S1130230883043F47003C2F88830704700ED00E062
S11302404FF40040704700BF4FF47A70704700BF0E
S1130250014B1868704700BF0C00002070B4294D92
S1130260294C2A4B466B002A16BF2B46002210222B
S1130270A04201D070BC7047022903EA06031FD0D4
S113028009D9062932D081291AD003292AD01E4A35
S1130290536370BC704739B30129F8D11C48016815
S11302A004680068090C000C00F0F00001F4FE4141
S11302B00143C4F30340014301FA02F21343E6E7A6
S11302C0144908680C68096800F4FE4004F00F043F
S11302D0204301F0F001014301FA02F213430A4AF8
S11302E05363D6E70B48DAE70949EAE70A480168A5
S11302F0006801F00F0100F0F000014301FA02F27E
S11303001343C4E7FFFF0080002000400080FFFF8C
S11303101082E00F1482E00F1882E00F70B5CB78E2
S11303200E460546002B32D002681B02120603F467
S1130330FE4425D50A23AB60B278307873783179DE
S1130340120402F4FE0243EA00631343234309B197
S113035043F0100305F1806105F1C06270792B60F0
S1130360C0240C6010602B681B0605D5114800F0F2
S11303709DF9114800F09AF94FF400632B6470BDA5
S11303800D4800F093F90C4800F090F9D2E70A48C0
S11303900A4C00F08BF90A4B0444A3FB0434A40D6B
S11303A0C8D0631E7F2B28BF7F231B0203F4FE44A7
S11303B0C0E700BFB800300040410500FF23F4004F
S11303C083DE1B4370B502230C46002289788360C8
S11303D00546FFF743FF217960786279E6780B02DE
S11303E043EA006343EA0243E27943EAC6030AB1FB
S11303F043F00053227A0AB143F00403A2790AB10C
S113040043F00203627A0AB143F00103F329A278AC
S11304102BD0160610461CD443EA40132B616A699C
S113042022F4F21222F007022078E37A42EA4042F0
S11304300BB142F48042680100F18440F32900F5D5
S1130440C863A47A6A610CBF0122002284601A6026
S113045070BD43F0E0032B616B6923F4F21322F0C7
S1130460800223F007031A43DEE7002AD1D10328D0
S113047003D823F0706343F080630020CCE700BF0F
S1130480B0F5FA4F10B50C4C38BF4FF4FA40844223
S113049028BF044651B1631E1944B1FBF4F020B1E6
S11304A001387F2828BF7F20C0B210BD034800F068
S11304B0FDF80146EFE700BF0024F40040410500C9
S11304C0C0F30323013B30B4092B0CD8DFE803F05D
S11304D00D110B0B152D190B2705164CC0F3043009
S11304E020448000016030BC7047C0F30430124CDB
S11304F0F6E7C0F30430114CF2E7C0F30430104CBB
S1130500EEE7104CC0F3043010250F4BD3F8442110
S1130510D207E5D4D3F840212A42FBD1E0E7C0F367
S113052004300A4C4FF48035EFE7C0F30430084C34
S11305300125EAE7800AF2100000F2100006F2102A
S11305408005F2104007F21000400E408007F210C0
S11305500007F21000F00F000138072847D8DFE841
S113056000F0121D3346283E4604264BD3F85C3176
S113057003F03003202B40D0302B40D0102B0CBF85
S11305800720012070471F4BD3F8943003F0070372
S1130590023B022B2FD81C4AD05C7047194BD3F86E
S11305A0803003F00703013B032B22D8174AD05CA9
S11305B07047144BD3F8883003F00703013B032B37
S11305C017D8134AD05C70470E4BD3F8843003F02D
S11305D00703013B032B0CD80E4AD05C7047094B30
S11305E01B6F13F0010F14BF092007207047002070
S11305F07047012070470520704704207047082089
S1130600704700BF00400E407C11000080110000C4
S1130610801100008411000008B50146FFF79AFF1D
S11306201E4B99422FD01E4B994226D01D4B994206
S11306301DD00138032803D8DFE800F01511042B7E
S1130640002008BDFFF7DAFD174BD3F80031C3F3E0
S113065000635A1C01239340B0FBF3F008BDBDE8CE
S11306600840FFF7F5BDBDE80840FFF7E9BD0E4BB4
S1130670D3F8800000F00700DBE70B4BD3F88800C9
S113068000F00700D5E7084BD3F8840000F007001A
S1130690CFE7BDE80840FFF7D7BD00BF03001E0049
S11306A00500220002001C0000400E4000F47810F7
S11306B0B0F5801F08B565D00ED9B0F5E01F3CD069
S11306C01BD8B0F5B01F2BD0B0F5C01F68D0B0F563
S11306D0A01F20D0002008BDB0F5802F55D03CD9F4
S11306E0B0F5402F2ED0B0F5602F46D0B0F5202FB6
S11306F0F0D1BDE80840FFF759BDB0F5081F0AD096
S1130700B0F5401F59D0B0F5F01FE3D13848BDE82B
S11307100840FFF781BF3748BDE80840FFF77CBFBA
S11307203548FFF779FF354BD3F82021012302F038
S11307300F029340B0FBF3F008BD2F48BDE808401A
S1130740FFF76ABFFFF732FD2C4BD3F81431C3F324
S113075004230133B0FBF3F008BD0028C9D0B0F581
S1130760003FB7D1FFF722FD244BD3F80831C3F380
S113077008230133B0FBF3F008BD2148FFF7EAFE7C
S1130780072827D11F4B186808BDFFF70FFD1B4B27
S1130790D3F80C31C3F308230133B0FBF3F008BDE5
S11307A01348FFF739FF154BD3F82821012302F032
S11307B003029340B0FBF3F008BD1348FFF7CAFEF1
S11307C00728DFD0082809D0042883D1BDE80840D1
S11307D0FFF726BD09287FF47DAF8AE7FFF7E6FC23
S11307E0064BD3F80031C3F3042303FB000008BD18
S11307F003001E000500220002001C0000400E4001
S113080006000E0010000020B800300019481A4BF2
S1130810C16C1B88C26CC1F303210131283330B48D
S113082003EB530301EB8105B3FBF5F3013B072B0A
S1130830124C22F0EE6228BF072342F4801242EAEF
S11308400363B4F90020C364002A10DB036D4C0871
S1130850283204EB410102EB520223F07004B2FB94
S1130860F1F3072B28BF072344EA0313036530BCC5
S1130870704700BF00300E409A0000209C0000200A
S1130880154A936FDB07FCD4136C13F0030317D0E2
S1130890124A0121984211601CD00F4A936FD90764
S11308A0FCD4136C0C4923F00303034313648B6FD0
S11308B0DB07FCD40030094B18BF012018607047D7
S11308C028B10128E9D1064B02221A70E5E7034B4F
S11308D018607047704700BF00300E40B40AC6432A
S11308E09E000020A0F5E163B3F5966F3CD82DE996
S11308F0F047684B684CD3F86851E76CB0F5E16F8A
S1130900C7F301774FEA072423D1C5F3072C4FF42B
S11309101679EDB24FF496634FF0000E4EEA0404DC
S113092040F20116B442A0EB030373D0B4F5817F07
S11309301CD340F20126B44268D04BD9B4F5407FB1
S113094060D040F20136B44268D1524CD4F8786198
S113095015E04FEA156C4FF49669C5F307454FF45B
S1130960E1634FF0010ED9E700207047012C42D01B
S113097058D3B4F5807F51D1464CD4F86C614FEA1A
S11309801668C6F30746A8EB060403FB04F4B4FB9D
S1130990F9F43444ACEB050A03FB0AF3B3FBF9F3B3
S11309A02B4463452BD8A04529D3A64227D872B13E
S11309B0394AD26D22F4FE4222F0020242EA0323B3
S11309C0B0F5E16F344A18BF43F00203D36569BB45
S11309D0012015E0B4F5007F20D12E4CD4F87061CD
S11309E0C6F30728F6B2A8EB060403FB04F4B4FB31
S11309F0F9F43444CEE7274CD4F87461F0E70020CE
S1130A00BDE8F087234CD4F87061B8E7214CD4F8E2
S1130A107861E5E71F4CD4F87461B0E70024A04680
S1130A202646B7E71B4CD4F86C61D9E7194A136D15
S1130A30DBB2032B1FD8B0F5E16FD2F87C3122D0A2
S1130A40C3F307231B0313F4702FD8D1124DEA6E9E
S1130A5022F470421343EB666B6E23F4FF73E72CAE
S1130A6023F0010328BFE72443EA0E0343EA4404C6
S1130A7008466C66C4E7022FD2F8803107D0032FF2
S1130A8003D0012FDCD0DBB2DCE71B0EDAE7C3F3C3
S1130A900743D7E7B081E00F00300E40234B1A6FB5
S1130AA0D96C11F0010F02F007020BD0012A29D9E9
S1130AB0132824D9143813288CBF4FF47F414FF4E2
S1130AC0EE4108E0D96C11F0010F0CD1012A22D9B2
S1130AD0DB6C6FF0FF01154AD36C23F47F430B43A7
S1130AE0D364FFF793BEDB6CDB0711D5012A0FD863
S1130AF027288CBF4FF47F414FF4EE41EBE74FF4CE
S1130B004C51E8E7DA6CD20705D5DB6CDB07EFD490
S1130B106FF0FF01DFE70928F1D90A3809288CBFF3
S1130B204FF47F414FF4EE41D5E700BF00300E4053
S1130B305A4B0222F0B59A639B6B03F00F03934266
S1130B4083B003D00024204603B0F0BD544BD3F847
S1130B506C31013315D0534A534B146819680C6037
S1130B60946899680C60146919690C6094699969AE
S1130B700C60146A196A283228330C6012681B68E6
S1130B801A60C288B0F90CC04A2A61D9B2F5FA7F5A
S1130B90C0F0818040F6C3139A428CBF4FF040549A
S1130BA04FF000543D49414FCB6C414E23F040532C
S1130BB023F00103BCF1000FA8BF43F0010323435A
S1130BC0CB64CB6E43F08073CB663B6805463088BC
S1130BD0002B3FD03B680B6F23F0070343F0040363
S1130BE00B67FFF75BFF2D4C236E23F0C043236696
S1130BF0E36C43F00603E36401A800F0D7F89DF822
S1130C000530012B2ED02B4B2B49A8882C89B5F904
S1130C100C201A8030800C80FFF740FFAB7B002B48
S1130C2035D0012B02D11D4B244A9A65012211466D
S1130C306888FFF757FE0446002883D0AB7A204A21
S1130C406878003318BF01231360FFF719FE7AE7B1
S1130C500024A7E73B680B6F23F007030B67FFF73C
S1130C601DFFC0E79DF80420022ACCD8154A11784C
S1130C700029C8D1144F1548396841F00101396081
S1130C80276E13493840014321661370BBE7034BB9
S1130C90104A9A65CAE74FF0805483E700300E404B
S1130CA0B081E00F3C80E00F3880E00F8009C6433C
S1130CB0980000209C0000209A000020372110B7E3
S1130CC09407C6439E00002044300E40000F0EF0EF
S1130CD0B4C0400B77402057F0B444004AB1271801
S1130CE0214D3F0101263D448E40A3B305F1C0656B
S1130CF02E6025182D0105F18045072905F52045AD
S1130D0019D88F006E684FF00F0C0CFA07FC26EA16
S1130D100C0602FA07F73E436E6052B90444124AC5
S1130D2024010120224400FA01F1C3B902F18062D6
S1130D301160F0BC704701F18046083EAF68B60010
S1130D404FF00F0C0CFA06FC27EA0C0702FA06F621
S1130D503E43AE60E1E705F180652E60C9E702F12C
S1130D60C062F0BC116070470CA0004010B44B8806
S1130D708C680A7823430AB143F001030A790AB163
S1130D8043F480330A7B0AB143F0020303605DF845
S1130D90044B704700F1047040010160704700BFCC
S1130DA0400100F18440C160704700BF0B4A5369A1
S1130DB011699B0003F03C03C1F381110B43837061
S1130DC0136903F03F0343709369D26903F0F0039E
S1130DD0C2F3031213430370704700BFD0FF0FE048
S1130DE00A7870B40AB902234360CB788D780C7A00
S1130DF08E791B0443EA05632343CD794C7843EA97
S1130E00862343EA0523002545620CB143F04003E1
S1130E104C7A0CB143F080038C7A0CB143F020037C
S1130E20CC7A0CB143F010030C790CB143F40053A9
S1130E304C790CB143F08053097B09B143F00803AA
S1130E4003600AB10123436070BC704710B5104CB5
S1130E50104884B00121FFF733FB00232046694684
S1130E60CDE9003302938DF80C30FFF7B9FF0A483F
S1130E70FFF71CFC094BA3FB0030C00E2062236863
S1130E80012243F080032360626004B010BD00BF00
S1130E900080014000020400404105005917B7D109
S1130EA010B5104C104884B00121FFF709FB002352
S1130EB04FF42872204669468DF800308DF80430CE
S1130EC002938DF80C30ADF80220FFF74FFF204657
S1130ED00121FFF765FF20460121FFF75BFF04B006
S1130EE010BD00BF006000400092040030B5012135
S1130EF087B000241D481E4DFFF7E2FA21461F2249
S1130F00FF231C48ADF80620CDE903448DF80440C6
S1130F108DF811308DF805408DF808408DF80940A2
S1130F200594FFF7ADFA0121032249238DF8070048
S1130F308DF80E10284601A98DF80D208DF810307B
S1130F408DF812408DF80F40FFF7E8F903A9284601
S1130F50FFF738FA6B6C084A4FF4804143F0010301
S1130F606B64C2F88011116007B030BD00820400C8
S1130F70002000400024F40000E100E0084A094990
S1130F8009480B8810B4946C0460084C0068E05461
S1130F90013301200B805DF8044B9060704700BF63
S1130FA000200040A4400020A0400020A000002019
S1130FB02DE9F041424B434CDD6C84B06F46002276
S1130FC02D0E38462280FFF7F1FE8E2D74D83E494F
S1130FD03E4BD1F8B0004FF0501240F00405C1F878
S1130FE0B0501A601A631A66C3F89020C3F8C02080
S1130FF0C3F8F020C1F8B000334AD36A23F07F036A
S113100043F02003D3629DF80130012B04D1304A10
S1131010136843F004031360FFF768FF2D4B2E4D54
S11310202E4E0FCB4FF0010CC5F808C087E80F0017
S113103000253846FFF77CFDA846FFF731FFFFF790
S113104005FF2B46A4F800801F460022324402F11B
S11310502000517812F8023B43EA0123BB4238BF17
S11310603B4690429FB2F4D10422B7F5006F11467B
S113107014D89DB905200023FFF72EFE052108464C
S1131080AFB901230422FFF727FE2288203292B24F
S1131090B2F5804F22803B46D8D3D3E70520012305
S11310A0FFF71AFE052101250846002FE9D0002389
S11310B00422FFF711FEE8E78F2DA4D89CE700BFB8
S11310C0B081E00FA440002000400E4000A000408A
S11310D064310E408811000000200040A000002070
S11310E008B5074B044613B10021AFF30080054B4C
S11310F01868836A03B19847204600F031F800BFAE
S1131100000000009811000070B50D4E0D4CA41B9A
S1131110A4100025A54209D10B4E0C4C00F022F876
S1131120A41BA4100025A54205D170BD56F8253096
S113113098470135EEE756F8253098470135F2E730
S11311407400002074000020740000207800002047
S113115002440346934200D1704703F8011BF9E7A8
S1131160FEE700BFF8B500BFF8BC08BC9E46704758
S1131170F8B500BFF8BC08BC9E46704704030200E3
S11311800302010A0302060A0001080705000A0017
S1131190C8002000FFFF0000140000200000000031
S10B11A068EFFF7F010000006D
S11311A8C0EA2101005A6202C0EA2101008000005D
S11311B8C0EA210100000000000000000000000057
S11311C80000000000000000000000000000000013
S11311D80000000000000000000000000000000003
S11311E800000000000000000000000000000000F3
S11311F800000000000000000000000000000000E3
S113120800000000000000000000000000000000D2
S10F121800000000ED000000C900000010
S903017D7E
